{
  "contractName": "AppMachine",
  "abi": [
    {
      "inputs": [
        {
          "internalType": "address payable",
          "name": "machAddress",
          "type": "address"
        }
      ],
      "payable": false,
      "stateMutability": "nonpayable",
      "type": "constructor"
    },
    {
      "anonymous": false,
      "inputs": [
        {
          "indexed": true,
          "internalType": "address",
          "name": "sender",
          "type": "address"
        },
        {
          "indexed": false,
          "internalType": "string",
          "name": "name",
          "type": "string"
        }
      ],
      "name": "FunctionCalled",
      "type": "event"
    },
    {
      "constant": true,
      "inputs": [],
      "name": "myRequest",
      "outputs": [
        {
          "internalType": "uint256",
          "name": "StartTime",
          "type": "uint256"
        },
        {
          "internalType": "uint256",
          "name": "Duration",
          "type": "uint256"
        },
        {
          "internalType": "uint256",
          "name": "Quality",
          "type": "uint256"
        },
        {
          "internalType": "uint256",
          "name": "Type",
          "type": "uint256"
        }
      ],
      "payable": false,
      "stateMutability": "view",
      "type": "function"
    },
    {
      "constant": true,
      "inputs": [],
      "name": "publicData",
      "outputs": [
        {
          "internalType": "uint256",
          "name": "",
          "type": "uint256"
        }
      ],
      "payable": false,
      "stateMutability": "view",
      "type": "function"
    },
    {
      "constant": true,
      "inputs": [],
      "name": "requestAcknowledged",
      "outputs": [
        {
          "internalType": "bool",
          "name": "",
          "type": "bool"
        }
      ],
      "payable": false,
      "stateMutability": "view",
      "type": "function"
    },
    {
      "constant": true,
      "inputs": [],
      "name": "requestSent",
      "outputs": [
        {
          "internalType": "bool",
          "name": "",
          "type": "bool"
        }
      ],
      "payable": false,
      "stateMutability": "view",
      "type": "function"
    },
    {
      "constant": true,
      "inputs": [],
      "name": "requiredToken",
      "outputs": [
        {
          "internalType": "uint256",
          "name": "",
          "type": "uint256"
        }
      ],
      "payable": false,
      "stateMutability": "view",
      "type": "function"
    },
    {
      "constant": true,
      "inputs": [],
      "name": "tokenTransferred",
      "outputs": [
        {
          "internalType": "bool",
          "name": "",
          "type": "bool"
        }
      ],
      "payable": false,
      "stateMutability": "view",
      "type": "function"
    },
    {
      "constant": false,
      "inputs": [
        {
          "internalType": "uint256",
          "name": "startTime",
          "type": "uint256"
        },
        {
          "internalType": "uint256",
          "name": "duration",
          "type": "uint256"
        },
        {
          "internalType": "uint256",
          "name": "quality",
          "type": "uint256"
        },
        {
          "internalType": "uint256",
          "name": "infType",
          "type": "uint256"
        }
      ],
      "name": "sendRequest",
      "outputs": [],
      "payable": false,
      "stateMutability": "nonpayable",
      "type": "function"
    },
    {
      "constant": false,
      "inputs": [],
      "name": "requestToken",
      "outputs": [],
      "payable": false,
      "stateMutability": "nonpayable",
      "type": "function"
    },
    {
      "constant": false,
      "inputs": [],
      "name": "sendToken",
      "outputs": [],
      "payable": true,
      "stateMutability": "payable",
      "type": "function"
    },
    {
      "constant": false,
      "inputs": [],
      "name": "encoder",
      "outputs": [
        {
          "internalType": "bytes",
          "name": "",
          "type": "bytes"
        }
      ],
      "payable": false,
      "stateMutability": "nonpayable",
      "type": "function"
    },
    {
      "constant": false,
      "inputs": [],
      "name": "setData",
      "outputs": [
        {
          "internalType": "bool",
          "name": "",
          "type": "bool"
        }
      ],
      "payable": false,
      "stateMutability": "nonpayable",
      "type": "function"
    },
    {
      "constant": false,
      "inputs": [],
      "name": "resetForRestart",
      "outputs": [],
      "payable": false,
      "stateMutability": "nonpayable",
      "type": "function"
    },
    {
      "constant": true,
      "inputs": [],
      "name": "getMachineAddress",
      "outputs": [
        {
          "internalType": "address",
          "name": "",
          "type": "address"
        }
      ],
      "payable": false,
      "stateMutability": "view",
      "type": "function"
    },
    {
      "constant": true,
      "inputs": [],
      "name": "getContractAddress",
      "outputs": [
        {
          "internalType": "address",
          "name": "",
          "type": "address"
        }
      ],
      "payable": false,
      "stateMutability": "view",
      "type": "function"
    },
    {
      "constant": true,
      "inputs": [],
      "name": "getStartTime",
      "outputs": [
        {
          "internalType": "uint256",
          "name": "",
          "type": "uint256"
        }
      ],
      "payable": false,
      "stateMutability": "view",
      "type": "function"
    },
    {
      "constant": true,
      "inputs": [],
      "name": "getDuration",
      "outputs": [
        {
          "internalType": "uint256",
          "name": "",
          "type": "uint256"
        }
      ],
      "payable": false,
      "stateMutability": "view",
      "type": "function"
    },
    {
      "constant": true,
      "inputs": [],
      "name": "getQuality",
      "outputs": [
        {
          "internalType": "uint256",
          "name": "",
          "type": "uint256"
        }
      ],
      "payable": false,
      "stateMutability": "view",
      "type": "function"
    },
    {
      "constant": true,
      "inputs": [],
      "name": "getType",
      "outputs": [
        {
          "internalType": "uint256",
          "name": "",
          "type": "uint256"
        }
      ],
      "payable": false,
      "stateMutability": "view",
      "type": "function"
    },
    {
      "constant": true,
      "inputs": [],
      "name": "getAppAddress",
      "outputs": [
        {
          "internalType": "address",
          "name": "",
          "type": "address"
        }
      ],
      "payable": false,
      "stateMutability": "view",
      "type": "function"
    },
    {
      "constant": true,
      "inputs": [],
      "name": "getRequiredToken",
      "outputs": [
        {
          "internalType": "uint256",
          "name": "",
          "type": "uint256"
        }
      ],
      "payable": false,
      "stateMutability": "view",
      "type": "function"
    },
    {
      "constant": true,
      "inputs": [],
      "name": "getTokenTrasnferredStatus",
      "outputs": [
        {
          "internalType": "bool",
          "name": "",
          "type": "bool"
        }
      ],
      "payable": false,
      "stateMutability": "view",
      "type": "function"
    },
    {
      "constant": true,
      "inputs": [],
      "name": "getRequestSentStatus",
      "outputs": [
        {
          "internalType": "bool",
          "name": "",
          "type": "bool"
        }
      ],
      "payable": false,
      "stateMutability": "view",
      "type": "function"
    },
    {
      "constant": true,
      "inputs": [],
      "name": "getRequestAcknowledgeStatus",
      "outputs": [
        {
          "internalType": "bool",
          "name": "",
          "type": "bool"
        }
      ],
      "payable": false,
      "stateMutability": "view",
      "type": "function"
    },
    {
      "constant": true,
      "inputs": [],
      "name": "getPublicData",
      "outputs": [
        {
          "internalType": "uint256",
          "name": "",
          "type": "uint256"
        }
      ],
      "payable": false,
      "stateMutability": "view",
      "type": "function"
    }
  ],
  "bytecode": "0x608060405234801561001057600080fd5b506040516112403803806112408339818101604052602081101561003357600080fd5b810190808051906020019092919050505080600160006101000a81548173ffffffffffffffffffffffffffffffffffffffff021916908373ffffffffffffffffffffffffffffffffffffffff1602179055506000600860026101000a81548160ff0219169083151502179055506000600860006101000a81548160ff0219169083151502179055506000600860016101000a81548160ff021916908315150217905550336000806101000a81548173ffffffffffffffffffffffffffffffffffffffff021916908373ffffffffffffffffffffffffffffffffffffffff16021790555030600260006101000a81548173ffffffffffffffffffffffffffffffffffffffff021916908373ffffffffffffffffffffffffffffffffffffffff160217905550604051610163906101c6565b604051809103906000f08015801561017f573d6000803e3d6000fd5b50600860036101000a81548173ffffffffffffffffffffffffffffffffffffffff021916908373ffffffffffffffffffffffffffffffffffffffff160217905550506101d3565b61014a806110f683390190565b610f14806101e26000396000f3fe60806040526004361061014b5760003560e01c80639c06c4dc116100b6578063bf7ce7421161006f578063bf7ce74214610534578063c5822c0d1461055f578063c828371e1461058e578063cfbe2927146105b9578063da464ed7146105f9578063f31604c7146106285761014b565b80639c06c4dc14610437578063a1ad566614610462578063ad2e8c9b14610491578063b11277c0146104bc578063b5458de914610513578063b8972db51461052a5761014b565b806363f6a6da1161010857806363f6a6da146102d75780636a0c66c81461032e5780638a204ed6146103875780638dd24721146103b25780639a76717a146103e15780639bf2324a1461040c5761014b565b806306df14161461015057806315dae03e146101e057806332a2c5d01461020b57806333a54ac6146102625780634d7ec6281461029157806357642743146102a8575b600080fd5b34801561015c57600080fd5b50610165610657565b6040518080602001828103825283818151815260200191508051906020019080838360005b838110156101a557808201518184015260208101905061018a565b50505050905090810190601f1680156101d25780820380516001836020036101000a031916815260200191505b509250505060405180910390f35b3480156101ec57600080fd5b506101f5610792565b6040518082815260200191505060405180910390f35b34801561021757600080fd5b5061022061079e565b604051808273ffffffffffffffffffffffffffffffffffffffff1673ffffffffffffffffffffffffffffffffffffffff16815260200191505060405180910390f35b34801561026e57600080fd5b506102776107c8565b604051808215151515815260200191505060405180910390f35b34801561029d57600080fd5b506102a66107df565b005b3480156102b457600080fd5b506102bd610889565b604051808215151515815260200191505060405180910390f35b3480156102e357600080fd5b506102ec61089c565b604051808273ffffffffffffffffffffffffffffffffffffffff1673ffffffffffffffffffffffffffffffffffffffff16815260200191505060405180910390f35b34801561033a57600080fd5b506103856004803603608081101561035157600080fd5b81019080803590602001909291908035906020019092919080359060200190929190803590602001909291905050506108c5565b005b34801561039357600080fd5b5061039c6109e7565b6040518082815260200191505060405180910390f35b3480156103be57600080fd5b506103c76109ed565b604051808215151515815260200191505060405180910390f35b3480156103ed57600080fd5b506103f6610a00565b6040518082815260200191505060405180910390f35b34801561041857600080fd5b50610421610a06565b6040518082815260200191505060405180910390f35b34801561044357600080fd5b5061044c610a13565b6040518082815260200191505060405180910390f35b34801561046e57600080fd5b50610477610a1d565b604051808215151515815260200191505060405180910390f35b34801561049d57600080fd5b506104a6610a34565b6040518082815260200191505060405180910390f35b3480156104c857600080fd5b506104d1610a41565b604051808273ffffffffffffffffffffffffffffffffffffffff1673ffffffffffffffffffffffffffffffffffffffff16815260200191505060405180910390f35b34801561051f57600080fd5b50610528610a6b565b005b610532610b3d565b005b34801561054057600080fd5b50610549610c42565b6040518082815260200191505060405180910390f35b34801561056b57600080fd5b50610574610c4c565b604051808215151515815260200191505060405180910390f35b34801561059a57600080fd5b506105a3610c5f565b6040518082815260200191505060405180910390f35b3480156105c557600080fd5b506105ce610c6c565b6040518085815260200184815260200183815260200182815260200194505050505060405180910390f35b34801561060557600080fd5b5061060e610c8a565b604051808215151515815260200191505060405180910390f35b34801561063457600080fd5b5061063d610ca1565b604051808215151515815260200191505060405180910390f35b60606040516024016040516020818303038152906040527ff31604c7000000000000000000000000000000000000000000000000000000007bffffffffffffffffffffffffffffffffffffffffffffffffffffffff19166020820180517bffffffffffffffffffffffffffffffffffffffffffffffffffffffff8381831617835250505050600990805190602001906106f1929190610e3a565b5060098054600181600116156101000203166002900480601f0160208091040260200160405190810160405280929190818152602001828054600181600116156101000203166002900480156107885780601f1061075d57610100808354040283529160200191610788565b820191906000526020600020905b81548152906001019060200180831161076b57829003601f168201915b5050505050905090565b60006003800154905090565b6000600260009054906101000a900473ffffffffffffffffffffffffffffffffffffffff16905090565b6000600860019054906101000a900460ff16905090565b6107e7610df2565b6007819055506001600860016101000a81548160ff0219169083151502179055503373ffffffffffffffffffffffffffffffffffffffff167f618191079b759c0e8f74514441817b7d0c6dee793d7edc2ac0fbff12ca88f89360405180806020018281038252600c8152602001807f72657175657374546f6b656e000000000000000000000000000000000000000081525060200191505060405180910390a2565b600860019054906101000a900460ff1681565b60008060009054906101000a900473ffffffffffffffffffffffffffffffffffffffff16905090565b836003600001819055508260036001018190555081600360020181905550806003800181905550336000806101000a81548173ffffffffffffffffffffffffffffffffffffffff021916908373ffffffffffffffffffffffffffffffffffffffff1602179055506001600860006101000a81548160ff0219169083151502179055506000600860026101000a81548160ff0219169083151502179055503373ffffffffffffffffffffffffffffffffffffffff167f618191079b759c0e8f74514441817b7d0c6dee793d7edc2ac0fbff12ca88f89360405180806020018281038252600b8152602001807f73656e645265717565737400000000000000000000000000000000000000000081525060200191505060405180910390a250505050565b60075481565b600860009054906101000a900460ff1681565b600a5481565b6000600360020154905090565b6000600754905090565b6000600860029054906101000a900460ff16905090565b6000600360010154905090565b6000600160009054906101000a900473ffffffffffffffffffffffffffffffffffffffff16905090565b6000600860026101000a81548160ff0219169083151502179055506000600860006101000a81548160ff0219169083151502179055506000600860016101000a81548160ff0219169083151502179055503373ffffffffffffffffffffffffffffffffffffffff167f618191079b759c0e8f74514441817b7d0c6dee793d7edc2ac0fbff12ca88f89360405180806020018281038252600f8152602001807f7265736574466f7252657374617274000000000000000000000000000000000081525060200191505060405180910390a2565b600160009054906101000a900473ffffffffffffffffffffffffffffffffffffffff1673ffffffffffffffffffffffffffffffffffffffff166108fc349081150290604051600060405180830381858888f19350505050158015610ba5573d6000803e3d6000fd5b506001600860026101000a81548160ff0219169083151502179055503373ffffffffffffffffffffffffffffffffffffffff167f618191079b759c0e8f74514441817b7d0c6dee793d7edc2ac0fbff12ca88f8936040518080602001828103825260098152602001807f73656e64546f6b656e000000000000000000000000000000000000000000000081525060200191505060405180910390a2565b6000600a54905090565b600860029054906101000a900460ff1681565b6000600360000154905090565b60038060000154908060010154908060020154908060030154905084565b6000600860009054906101000a900460ff16905090565b600060011515600860029054906101000a900460ff16151514610cc357600080fd5b600860039054906101000a900473ffffffffffffffffffffffffffffffffffffffff1673ffffffffffffffffffffffffffffffffffffffff1663770b54146040518163ffffffff1660e01b815260040160206040518083038186803b158015610d2b57600080fd5b505afa158015610d3f573d6000803e3d6000fd5b505050506040513d6020811015610d5557600080fd5b8101908080519060200190929190505050600a819055503373ffffffffffffffffffffffffffffffffffffffff167f618191079b759c0e8f74514441817b7d0c6dee793d7edc2ac0fbff12ca88f8936040518080602001828103825260078152602001807f736574446174610000000000000000000000000000000000000000000000000081525060200191505060405180910390a26001905090565b600080600160038001541415610e19576706f05b59d3b20000600360010154029050610e33565b6003600201546706f05b59d3b20000600360010154020290505b8091505090565b828054600181600116156101000203166002900490600052602060002090601f016020900481019282601f10610e7b57805160ff1916838001178555610ea9565b82800160010185558215610ea9579182015b82811115610ea8578251825591602001919060010190610e8d565b5b509050610eb69190610eba565b5090565b610edc91905b80821115610ed8576000816000905550600101610ec0565b5090565b9056fea265627a7a72315820d7a4091e6173062d93e6a94e400e95a596c6e7689b76a7c00cf980e2e5e32aaf64736f6c63430005100032608060405234801561001057600080fd5b5061022b60008190555033600160006101000a81548173ffffffffffffffffffffffffffffffffffffffff021916908373ffffffffffffffffffffffffffffffffffffffff16021790555060e1806100696000396000f3fe6080604052348015600f57600080fd5b506004361060285760003560e01c8063770b541414602d575b600080fd5b60336049565b6040518082815260200191505060405180910390f35b6000600160009054906101000a900473ffffffffffffffffffffffffffffffffffffffff1673ffffffffffffffffffffffffffffffffffffffff163373ffffffffffffffffffffffffffffffffffffffff161460a457600080fd5b60005490509056fea265627a7a723158205669fcec1f345758adaa44f8ef6fb36bc8387876d1d47ae00932509969978d1864736f6c63430005100032",
  "source": "pragma solidity ^0.5.0;\n// We have to specify what version of compiler this code will compile with\n\nimport './ERC827.sol';\nimport './Sensor.sol';\n\ncontract AppMachine {\n\n\n    address private appAddress;\n    address payable private machineAddress;\n    address contractAddress;\n\n    struct RequestApp {\n/*Unix time takes the format of uint256 */\n        uint256 StartTime;\n        uint256 Duration;\n        uint Quality;\n        uint Type;\n    }\n\n    RequestApp public myRequest;\n    uint256 public requiredToken;\n    bool public requestSent;\n    bool public requestAcknowledged;\n    bool public tokenTransferred;\n\n    //Eine Sensorinstanz\n    Sensor sensor1;\n\n    //Event, welches beim Debuggen hilft um einen Funktionsaufruf nachzuweisen\n    event FunctionCalled(\n        address indexed sender,\n        string name\n    );\n\n\n    /* This is the constructor which will be called once when you\n    deploy the contract to the blockchain. When we deploy the contract,\n    we will pass the address of the the app which makes the request and the target machine/sensor\n    and also the request parameter such as startime, duration, and quality\n    */\n\n    constructor(address payable machAddress)  public {\n        machineAddress = machAddress;\n        tokenTransferred = false;\n        requestSent = false;\n        requestAcknowledged = false;\n\n        appAddress = msg.sender;\n        contractAddress = address(this);\n\n        //Sensorinstanz erzeugen\n        sensor1 = new Sensor();\n    }\n\n\n  // This is the sendRequest function called by the machine\n    function sendRequest(uint startTime, uint duration, uint quality, uint infType) public {   \n        myRequest.StartTime = startTime;\n        myRequest.Duration = duration;\n        myRequest.Quality = quality;\n        myRequest.Type = infType;\n        appAddress = msg.sender;\n        requestSent = true;\n        tokenTransferred = false;\n\n        emit FunctionCalled(msg.sender, \"sendRequest\");\n    }\n\n\n  /*\n  In this function we are calculating the token requiredToken\n  this function is an internal function called by the requestToken() function\n  */\n    function calculateToken() private view returns (uint) {\n        uint256 tokenAmount;\n\n        if(myRequest.Type == 1) tokenAmount = myRequest.Duration*5e17;\n        else tokenAmount = (myRequest.Duration*5e17) * myRequest.Quality;\n        \n        return tokenAmount;\n    }\n\n    /*\n    Once the machine receives a requests it calls this function\n    It calculates the number of tokens required\n    */\n    function requestToken() public {\n        requiredToken = calculateToken();\n        requestAcknowledged = true;\n\n        emit FunctionCalled(msg.sender, \"requestToken\");\n    }\n\n    /*\n    Once the App sees that the machine is requesting for token,\n    this function is invoked. to send the token.\n    if successfully tranferred then the tokenTranferred parameter is made true\n    */\n    function sendToken() public payable  {\n        machineAddress.transfer(msg.value);\n        tokenTransferred = true;\n\n        emit FunctionCalled(msg.sender, \"sendToken\");\n    }\n\n/*\n    Data handler\n*/\n\n    //Hilfsfunktion zum Encoden eines Funktionsaufrufs. Der Funktionsaufruf/Call durch den ERC827-Token benötigt den Bytecode des Funktionsaufrufes. \n    bytes code;\n    function encoder() public returns(bytes memory)\n    {\n        code = abi.encodeWithSignature(\"setData()\");\n        return code;\n    }\n\n    //Einsehbare Daten\n    uint256 public publicData;\n    \n    //Prüft, ob schon bezahlt ist. Kann als Vorraussetzung eines Funktionsaufrufes verwendet werden\n    modifier isPaid()\n    {\n        require(tokenTransferred == true);\n        _;\n    }\n\n    //Entnimmt die Daten vom Sensor\n    function setData() public isPaid returns(bool) { \n        publicData = sensor1.getCurrentData();\n\n        emit FunctionCalled(msg.sender, \"setData\");\n\n        return true;\n    }\n    \n    // MaLm: Restart der App\n    function resetForRestart() public {\n        tokenTransferred = false;\n        requestSent = false;\n        requestAcknowledged = false;\n       \n       \n       emit FunctionCalled(msg.sender, \"resetForRestart\"); \n    }\n\n/*\n\tgetter functions\n*/\n\n    function getMachineAddress() public view returns (address){\n      return machineAddress;\n    }\n    function getContractAddress() public view returns(address){\n      return contractAddress;\n    }\n    function getStartTime() public view returns (uint256){\n      return myRequest.StartTime;\n    }\n    function getDuration() public view returns (uint256) {\n        return myRequest.Duration;\n    }\n    function getQuality() public view returns (uint){\n      return myRequest.Quality;\n    }\n    function getType() public view returns (uint){\n      return myRequest.Type;\n    }\n    function getAppAddress() public view returns (address){\n      return appAddress;\n    }\n    function getRequiredToken() public view returns (uint256){\n      return requiredToken;\n    }\n    function getTokenTrasnferredStatus() public view returns(bool){\n      return tokenTransferred;\n    }\n    function getRequestSentStatus() public view returns(bool){\n      return requestSent;\n    }\n    function getRequestAcknowledgeStatus() public view returns(bool){\n      return requestAcknowledged;\n    }\n    function getPublicData() public view returns(uint256){\n      return publicData;\n    }\n\n}\n",
  "sourcePath": "/Users/neidlinger/Desktop/ProjektseminarBlockchain-master/ProjektseminarBlockchain-master/backend/contracts/AppMachine.sol",
  "compiler": {
    "name": "solc",
    "version": "0.5.16+commit.9c3226ce.Emscripten.clang"
  },
  "schemaVersion": "3.4.0",
  "updatedAt": "2021-05-26T14:29:18.105Z",
  "networkType": "ethereum",
  "devdoc": {
    "methods": {}
  },
  "userdoc": {
    "methods": {}
  }
}