{
  "contractName": "Sensor",
  "abi": [
    {
      "inputs": [],
      "payable": false,
      "stateMutability": "nonpayable",
      "type": "constructor"
    },
    {
      "constant": true,
      "inputs": [],
      "name": "getCurrentData",
      "outputs": [
        {
          "internalType": "uint256",
          "name": "",
          "type": "uint256"
        }
      ],
      "payable": false,
      "stateMutability": "view",
      "type": "function"
    }
  ],
  "bytecode": "0x608060405234801561001057600080fd5b5061022b60008190555033600160006101000a81548173ffffffffffffffffffffffffffffffffffffffff021916908373ffffffffffffffffffffffffffffffffffffffff16021790555060e1806100696000396000f3fe6080604052348015600f57600080fd5b506004361060285760003560e01c8063770b541414602d575b600080fd5b60336049565b6040518082815260200191505060405180910390f35b6000600160009054906101000a900473ffffffffffffffffffffffffffffffffffffffff1673ffffffffffffffffffffffffffffffffffffffff163373ffffffffffffffffffffffffffffffffffffffff161460a457600080fd5b60005490509056fea265627a7a723158205669fcec1f345758adaa44f8ef6fb36bc8387876d1d47ae00932509969978d1864736f6c63430005100032",
  "source": "pragma solidity ^0.5.0;\n\nimport './ERC827.sol';\nimport './AppMachine.sol';\n\ncontract Sensor {\n\n\tuint256 sensorData;\n\taddress appAddress;\n\n\t//Wird vom Contract AppMachine aufgerufen und speichert die Addresse dieses Contracts. Sensordaten werden hier einfach gesetzt, da wir keinen realen Sensor haben.\n\tconstructor () public {\n\t\tsensorData = 555;\n\t\tappAddress = msg.sender;\n\t}\n\t\n\t//Stellt sicher, dass nur der Contract AppMachine diese Funktion aufrufen kann\n\tmodifier fromContract{\n\t\trequire(msg.sender == appAddress);\n\t\t_;\n\t}\n\n\t//getter\n\tfunction getCurrentData() public view fromContract returns(uint256)\n\t{\n\t\treturn sensorData;\n\t}\n\n}",
  "sourcePath": "/Users/neidlinger/Desktop/ProjektseminarBlockchain-master/ProjektseminarBlockchain-master/backend/contracts/Sensor.sol",
  "compiler": {
    "name": "solc",
    "version": "0.5.16+commit.9c3226ce.Emscripten.clang"
  },
  "schemaVersion": "3.4.0",
  "updatedAt": "2021-05-26T14:28:57.762Z",
  "devdoc": {
    "methods": {}
  },
  "userdoc": {
    "methods": {}
  }
}